:101ACF0044657369676E65642062793A0032353513
:101ADF00323130323900414420566F6C7461676582
:101AEF00200020202020202020200052616E6765DA
:101AFF003A323030306D56006D560052616E676568
:101B0F003A202020323056005620005265736973F8
:101B1F0074616E6365200052616E67653A203230E2
:101B2F00300052616E67653A2020324B0052616E71
:101B3F0067653A2032304B0052616E67653A32303A
:101B4F00304B004672657175656E637920200052C7
:101B5F00616E67653A3230487A202000487A20203B
:101B6F000052616E67653A323030487A2000526118
:101B7F006E67653A324B487A202000487A2000522F
:101B8F00616E67653A32304B487A20004B487A20B5
:101B9F00202000436F6E74696E7569747920002080
:101BAF002020202020202020202020202020004224
:101BBF00656570204F6E20200042656570204F666E
:101BCF0066200044696F6465205465737420005269
:101BDF0045443A2D00202020202020202020005294
:101BEF0045443A2B005620202020005245443A20ED
:101BFF0000414320566F6C7461676520004361702C
:101C0F0061636974616E63650020202020202020AD
:061C1F002020202020001F
:0727B300025E0000014A066E
:1000D6007554061200B812290412287F122209123A
:1000E600000312295C1226581228B612298D439253
:1000F600405391BFE4F54EF54DF54CF54BF552F5F1
:1001060051F550F54FFBFDFF1220D37B017D02E434
:10011600FF1220D37B027D04E4FF1220D37B037DF4
:1001260006E4FF1220D37B047D08E4FF1220D37B74
:10013600FF7A1A79CFE4FD7F011227187B05E4FDCB
:100146007F021220D37B067D027F021220D37B071B
:100156007D047F021220D37BFF7A1A79DCE4FD7FCF
:10016600031227187FB87E0B1228CE7F021228E3CF
:10017600EF601C054AE54AC394074003E4F54AAF1D
:100186004A1225FE755406E4F55DF547755306E5F6
:100196004A640660030202587BFF7A1A79E5FDFF7E
:1001A6001227187BFF7A1A79F1E4FD7F03122718CC
:1001B6007F011228E3EF60020554E554D39407400B
:1001C60003755406AF5412289E7F0312274E8E489D
:1001D6008F49AD541223B28F678E668D658C647F0E
:1001E600647E001228CEE5546406702D7BFF7A1AD1
:1001F60079FAFD7F011227188567268566258565AC
:1002060024856423752704752801E4FD7F021218EE
:10021600757BFF7A1B79078034E554640760030217
:1002260001717BFF7A1B790AFD7F0112271885670A
:10023600268566258565248564237527037528022A
:10024600E4FD7F021218757BFF7A1B79177D060283
:1002560007D1E54A60030203A87BFF7A1B791AFDE2
:10026600FF1227187F011228E3EF6002055DE55DA6
:10027600D394034003E4F55DAF5D1227DB7F0112E3
:10028600274E8E488F49AD49AC48AF5D1215F08FA9
:100296005C8E5B8D5A8C597F647E001228CE7D0A57
:1002A6007F011224B8E55D702A7BFF7A1B7926FD53
:1002B6007F01122718855C26855B25855A2485597A
:1002C60023752703752802E4FD7F021218757B202B
:1002D60002038EE55D640170377BFF7A1B7931FD81
:1002E6007F01122718E4FBFA797A7844AF5CAE5B9B
:1002F600AD5AAC5912127F8F268E258D248C23750C
:100306002703752802E4FD7F021218757B4B80785F
:10031600E55D640270377BFF7A1B793CFD7F011235
:100326002718E4FBFA797A7844AF5CAE5BAD5AAC39
:100336005912127F8F268E258D248C2375270375DF
:100346002802E4FD7F021218757B4B803BE55D6455
:1003560003703C7BFF7A1B7947FD7F01122718E467
:10036600FBFA797A7844AF5CAE5BAD5AAC5912129F
:100376007F8F268E258D248C23752703752802E40E
:10038600FD7F021218757B4B7D067F0212229A7D35
:10039600077F021224B87B207D0B7F0112229A026E
:1003A6000171E54A6401600302063890FEB2F07BF3
:1003B600FF7A1B7952FDFF1227187F011228E3EFFF
:1003C60060020547E547D394034003E4F547AC686C
:1003D600AD69E41213ABA804A905AA06AB077F0012
:1003E6007E247D747C4912127F8F4E8E4D8D4C8CEF
:1003F6004BAC6AAD6BE41213ABE4FBFA79C87842F6
:10040600121176C004C005C006C007AC68AD69E429
:100416001213ABA804A905AA06AB07D007D006D0CD
:1004260005D00412127F8F528E518D508C4FE547A6
:10043600706AFFFE7DC87C42AB4EAA4DA94CA84B04
:1004460012131C6004400205477BFF7A1B795EE4A9
:10045600FD7F01122718854E26854D25854C24855E
:100466004B23752703752801E4FD7F021218757B5F
:10047600FF7A1B796B7D057F021227188552268528
:100486005125855024854F23752703752802E4FDE1
:100496007F031218757D067F03122528E547640140
:1004A600600302052BFFFE7D7A7C44AB4EAA4DA964
:1004B6004CA84B12131C600440020547E4FFFE7D66
:1004C600C87C42AB4EAA4DA94CA84B12131C500235
:1004D60015477BFF7A1B7970E4FD7F01122718858B
:1004E6004E26854D25854C24854B23752703752877
:1004F60001E4FD7F021218757BFF7A1B796B7D057F
:100506007F02122718855226855125855024854F4E
:1005160023752703752802E4FD7F031218757D06EF
:100526007F03122528E547640260030205B5FF7EB6
:10053600407D1C7C46AB4EAA4DA94CA84B12131C01
:10054600600440020547E4FFFE7D7A7C44AB4EAA78
:100556004DA94CA84B12131C500215477BFF7A1B62
:10056600797DE4FD7F01122718854E26854D258568
:100576004C24854B23752704752801E4FD7F021260
:1005860018757BFF7A1B798A7D067F0212271885EC
:100596005226855125855024854F237527037528B6
:1005A60002E4FD7F031218757D067F03122528E5F8
:1005B6004764036003020171FF7E407D1C7C46ABED
:1005C6004EAA4DA94CA84B12131C500215477BFF8F
:1005D6007A1B798EE4FD7F01122718E4FBFA797AFB
:1005E6007844AF4EAE4DAD4CAC4B12127F8F268E7B
:1005F600258D248C23752703752801E4FD7F0212BF
:1006060018757BFF7A1B799B7D057F02122718855B
:100616005226855125855024854F23752703752835
:1006260002E4FD7F031218757D067F03122528025A
:100636000171E54A640260030206DA7BFF7A1B79E0
:10064600A2FDFF1227187BFF7A1B79AEE4FD7F011E
:100656001227187BFF7A1B79AEE4FD7F0312271859
:10066600AF5D1227DB7F0112274E8E488F49AD49B9
:10067600AC48AF5D1215F08F5C8E5B8D5A8C59E4D9
:10068600FFFE7D487C42AB5CAA5BA95AA8591213AF
:100696001C600250137BFF7A1B79BEE4FD7F0212B9
:1006A6002718122994020171E4FFFE7D487C42ABB3
:1006B6005CAA5BA95AA85912131C600250030201D6
:1006C600717BFF7A1B79C8E4FD7F02122718122975
:1006D60097020171E54A640360030207D67F04129C
:1006E600274E8E488F497BFF7A1B79D2E4FDFF1295
:1006F6002718AC48AD49E41213AB7B007AF0797F3A
:10070600784512127FE4FBFA79A078401211768FB1
:10071600638E628D618C607FCD7ECC7DCC7C3DAB63
:1007260063AA62A961A86012131C40177F9A7E997A
:100736007D897C40AB63AA62A961A86012131C6024
:100746001940177BFF7A1B79DEE4FD7F011227181B
:100756007BFF7A1B79E4E4FD80717FCD7ECC7DCC76
:100766007C3DAB63AA62A961A86012131C40477F57
:100776009A7E997D897C40AB63AA62A961A86012C2
:10078600131C600250307BFF7A1B79EEE4FD7F017B
:100796001227188563268562258561248560237561
:1007A6002701752802E4FD7F021218757BFF7A1B6C
:1007B60079F47D0480157BFF7A1B79FAE4FD7F01CD
:1007C6001227187BFF7A1B79E4E4FD7F0202094AAF
:1007D600E54A6404600302095090FEB204F07BFF10
:1007E6007A1C7900E4FDFF1227187F011228E3EF37
:1007F60060020553E553D394074003755306AF5380
:1008060012289E7F0312274E8E488F49AB537D8058
:100816007C00121E9C8F588E578D568C55AF67AE36
:1008260066AD65AC64AB58AA57A956A85512131CF9
:10083600600E400C855867855766855665855564F4
:10084600D3E5499434E5489408401BE54994FCE512
:100856004894085011E4F558F557F556F555F567DF
:10086600F566F565F564AC68AD69E41213ABA804EA
:10087600A905AA06AB077F007E247D747C49121267
:100886007F8F4E8E4D8D4C8C4BE553640670577B97
:10089600FF7A1A79FAFD7F01122718856726856681
:1008A60025856524856423752704752801E4FD7F65
:1008B600021218757BFF7A1B79077D067F021227C5
:1008C60018854E26854D25854C24854B2375270393
:1008D600752801E4FD7F031218757BFF7A1B796B7F
:1008E6007D057F03805EE553640760030201717B2B
:1008F600FF7A1B790AFD7F01122718856726856610
:1009060025856524856423752703752802E4FD7F04
:10091600021218757BFF7A1B79177D067F02122754
:1009260018854E26854D25854C24854B2375270332
:10093600752801E4FD7F031218757BFF7A1B796B1E
:100946007D057F03122718020171E54A64056003DD
:100956000201717BFF7A1C790CFDFF1227187BFFC1
:100966007A1C7918E4FD7F011227187BFF7A1B7920
:10097600E4E4FD7F021227187BFF7A1C7918E4FD58
:080986007F0312271802017122
:03000B0002243993
:10243900C0E0C0F0C083C082C0D075D000C000C069
:1024490001C002C003C004C005C006C007758A30B8
:10245900758CF8055FE55F7002055E122593D3E57B
:102469005F9400E55E9400400DD3E55F9402E55E5C
:1024790094005002D296D3E55F9402E55E94004041
:1024890013D3E55F9403E55E94005008755E00750B
:102499005F00C296D007D006D005D004D003D00281
:0F24A900D001D000D0D0D082D083D0F0D0E0329C
:0300D3000226E121
:1026E100C0E0C083C08290FEC5E030E10EE054FD41
:1026F100F090FED5E0F568A3E0F56990FEC5E03005
:10270100E20EE054FBF090FED7E0F56AA3E0F56B32
:07271100D082D083D0E0323A
:1028CE0000EF4E600F7D207C28DCFEDDFCEF1F70DC
:0428DE00F01E80ED7B
:0128E20022D3
:0F28F400EF4E600B7D06DDFEEF1F70F41E80F1CE
:0129030022B1
:10098E000000000000000000000000000000000059
:10099E00000000F8000000000000003330000000EE
:1009AE0000100C06100C06000000000000000000F5
:1009BE0040C07840C0784000043F04043F04040067
:1009CE00007088FC08300000001820FF211E000077
:1009DE00F008F000E018000000211C031E211E008C
:1009EE0000F00888700000001E2123241927211012
:1009FE0010160E00000000000000000000000000B5
:100A0E00000000E01804020000000007182040005B
:100A1E0000020418E000000000402018070000004B
:100A2E00404080F0804040000202010F01020200AF
:100A3E00000000F0000000000101011F0101010093
:100A4E00000000000000000080B0700000000000F8
:100A5E000000000000000000000101010101010181
:100A6E000000000000000000003030000000000018
:100A7E0000000000806018040060180601000000ED
:100A8E0000E010080810E000000F102020100F00EA
:100A9E00001010F8000000000020203F2020000071
:100AAE0000700808088870000030282422213000C9
:100ABE0000300888884830000018202020110E00D1
:100ACE000000C02010F8000000070424243F24007A
:100ADE0000F80888880808000019212020110E004F
:100AEE0000E0108888180000000F112020110E0061
:100AFE0000380808C83808000000003F0000000059
:100B0E000070880808887000001C222121221C0019
:100B1E0000E010080810E0000000312222110F0042
:100B2E00000000C0C00000000000003030000000D7
:100B3E000000008000000000000080600000000047
:100B4E000000804020100800000102040810200060
:100B5E0040404040404040000404040404040400AB
:100B6E000008102040800000002010080402010040
:100B7E00007048080808F000000000303601000040
:100B8E00C030C828E810E0000718272423140B00F3
:100B9E000000C038E0000000203C2302022738206D
:100BAE0008F8888888700000203F202020110E0051
:100BBE00C030080808083800071820202010080048
:100BCE0008F808080810E000203F202020100F0031
:100BDE0008F88888E8081000203F202023201800FD
:100BEE0008F88888E8081000203F20000300000065
:100BFE00C03008080838000007182020221E020006
:100C0E0008F808000008F808203F210101213F20C4
:100C1E00000808F8080800000020203F20200000EF
:100C2E0000000808F8080800C08080807F000000DF
:100C3E0008F888C028180800203F20012638200018
:100C4E0008F8080000000000203F2020202030007F
:100C5E0008F8F800F8F80800203F003F003F200099
:100C6E0008F830C00008F808203F200007183F00A1
:100C7E00E01008080810E0000F10202020100F00D0
:100C8E0008F808080808F000203F210101010000C3
:100C9E00E01008080810E0000F18242438504F0008
:100CAE0008F8888888887000203F2000030C3020C8
:100CBE0000708808080838000038202121221C0006
:100CCE00180808F8080818000000203F200000004F
:100CDE0008F808000008F808001F202020201F0038
:100CEE000878880000C83808000007380E01000098
:100CFE00F80800F80008F800033C0700073C030062
:100D0E00081868808068180820302C03032C3020C7
:100D1E000838C800C83808000000203F2000000036
:100D2E0010080808C838080020382621202018008E
:100D3E00000000FE020202000000007F4040400062
:100D4E00000C30C000000000000000010638C0009A
:100D5E0000020202FE000000004040407F00000042
:100D6E000000040202020400000000000000000067
:100D7E000000000000000000808080808080808065
:100D8E00000202040000000000000000000000004D
:100D9E0000008080808000000019242222223F2043
:100DAE0008F8008080000000003F112020110E0086
:100DBE000000008080800000000E11202020110015
:100DCE00000000808088F800000E112020103F20C7
:100DDE000000808080800000001F2222222213004B
:100DEE00008080F0888888180020203F2020000096
:100DFE000000808080808000006B9494949360004B
:100E0E0008F8008080800000203F210000203F2055
:100E1E0000809898000000000020203F2020000055
:100E2E00000000809898000000C08080807F000045
:100E3E0008F8000080808000203F24022D30200022
:100E4E00000808F8000000000020203F20200000CD
:100E5E008080808080808000203F20003F20003FE7
:100E6E008080008080800000203F210000203F20F5
:100E7E000000808080800000001F202020201F00A6
:100E8E00808000808000000080FFA12020110E00D5
:100E9E000000008080808000000E112020A0FF80C6
:100EAE00808080008080800020203F212000010073
:100EBE0000008080808080000033242424241900C8
:100ECE00008080E0808000000000001F20200000D5
:100EDE008080000000808000001F202020103F2016
:100EEE00808080000080808000010E3008060100A6
:100EFE0080800080008080800F300C030C300F004B
:100F0E0000808000808080000020312E0E31200075
:100F1E00808080000080808080818E7018060100A5
:100F2E0000808080808080000021302C22213000C3
:100F3E0000000000807C020200000000003F4040E4
:100F4E0000000000FF00000000000000FF00000095
:100F5E000002027C800000000040403F00000000C4
:100F6E00000601010202040400000000000000005F
:100F7E0090523410FF10345280708F0808F8080019
:100F8E00829A566322528E008040330C334080008A
:100F9E00100C042424242526A464240404140C0018
:100FAE00020202020242827F0202020202020200D8
:100FBE000404040404FC4444444444C404040400EF
:100FCE0080402018060100004080403F00000000D5
:100FDE000000FE22222222FE22222222FE000000F9
:100FEE0080601F020202027F020242827F00000026
:100FFE0000042424242424FF242424242404000074
:10100E0021211109FD8341230509112925414100A3
:10101E0080A0908E888888FF888888888880800045
:10102E0020201008040201FF0102040810202000F5
:10103E00102C2424A4A465A624242424A4340C0057
:10104E0040494929241452897F040A111020200096
:10105E002020FF2024F4545454FF545556F4040019
:10106E000000FF00080B1969090B49897D0B080068
:102840008F461229727F7812294012297BE4FF12E9
:10285000294012297BAF4612294012297B02298484
:102781003EF583E5822541F582E5833540F583E415
:0227910093FFB4
:102793008F441229727F7812294012297B7F4012BD
:1027A300294012297BAF4412294012297B02298434
:10281F008F448D45E544540FFF122840E54454F092
:10282F00C4540F4410FF122840E54544B0FF02285E
:01283F004058
:1026A400E4F523F524AD24E4FF12281FE4F521F515
:1026B40022E4FF1227930522E52270020521C39428
:1026C40080E5216480948040E80524E524700205B7
:0C26D40023C39408E5236480948040C96F
:0126E00022D7
:102209001228607F647E001228CE7FAE1228407F9C
:10221900A1122840E4FF1228407F201228407F02A3
:102229001228407F401228407F811228407F7F1268
:1022390028407FA61228407FA81228407F3F1228F5
:10224900407FAD122840E4FF1228407FC812284081
:102259007FD3122840E4FF1228407FD51228407FFF
:10226900801228407FD91228407FF11228407FDB55
:102279001228407F401228407F8D1228407F141277
:1022890028407FAF1228407F647E001228CE0226A4
:01229900A4A0
:02229A008B3F78
:10229C00EF25E0F542ED75F008A4F543AD42FF12D1
:1022AC00281FE4F540F541AF3FEF3395E0FEEFC456
:1022BC00F8540FC868FFEEC454F048FE748E2FF526
:1022CC008274071227810541E54170020540C394D1
:1022DC0008E5406480948040CEE54204FDAF431293
:1022EC00281FE4F540F541AF3FEF3395E0FEEFC416
:1022FC00F8540FC868FFEEC454F048FE74962FF5DE
:10230C008274071227810541E54170020540C39490
:09231C0008E5406480948040CE85
:012325002295
:0A2718008F218D228B238A2489254E
:10272200E4F526F527AB23AA24A925852782852649
:10273200831214CCFB6014E5222527FDAF2112225F
:0B2742009A0527E52770DE052680DAE7
:01274D002269
:081C25008F368D378A388B39A8
:101C2D00E4F53DF53EC3E5386480948050127B2D7C
:101C3D0012229A0537C3E49539FBE49538FA153A23
:101C4D00EB4A7019053EE53EAE3D7002053D14248C
:101C5D0024F58274003EF5837430F0804DD3EB94FF
:101C6D0000EA648094804042E53E940AE53D64803C
:101C7D00948050367C007D0AAF03AE021214F9ED4C
:101C8D002430FF053EE53EAC3D7002053D14242495
:101C9D00F58274003CF583EFF07C007D0AAF03AE56
:101CAD00021214F9AA06AB0780B3AF3EE4F53BF57B
:101CBD003CE53AFDC3E53C9D7480F8653B98505971
:101CCD00EFFDE53AC39DFDE49400FCC3E53C9DECBE
:101CDD006480F8E53B64809850117418253CF582BA
:101CED007400353BF5837430F08024E53AC3953CA0
:101CFD00FDE4953BFC74232DF58274003CF583E0E7
:101D0D00FE7418253CF5827400353BF583EEF00525
:101D1D003CE53C709C053B80987418253AF582E4AF
:101D2D003400F583E4F0F53BF53CC3E53C953A749E
:101D3D0080F8653B985022E537253CFD7418253C0D
:101D4D00F5827400353BF583E0FBAF3612229A0520
:091D5D003CE53C70D5053B80D14A
:011D6600225A
:021875008F21C1
:101877008D2FE4FFFEFDFCAB26AA25A924A8231281
:10188700131C501E7B2DAD2FAF2112229A052FAFAF
:1018970026AE25AD24AC231213958F268E258D24D5
:1018A7008C23AF26AE25AD24AC231213E48E2B8FE9
:1018B7002CAC2BAD2CEC1213ABA804A905AA06ABD4
:1018C70007AF26AE25AD24AC23121081786C121514
:1018D70076E4F529F52AC3E52A95287480F8652961
:1018E70098501E786C12153DE4FBFA792078411266
:1018F7001176786C121576052AE52A70D9052980A4
:10190700D5E4FFFEFD7C3F786C1215591210851245
:1019170013E48E2D8F2EAC28E41213B08F3D8E3C2E
:101927008D3B8C3A7F007E007D207C41121FBC12CC
:1019370013E4C3E52E9FEE6480F8E52D648098409C
:101947002F052CE52C7002052BAC28E41213B08F61
:101957003D8E3C8D3B8C3A7F007E007D207C411282
:101967001FBC1213E4C3E52E9FF52EE52D9EF52D22
:1019770085273AAB2CAA2BAD2FAF21121C25E527C3
:10198700252FF52F7B2EFDAF2112229A052FE52853
:08199700D394005003021ACEA4
:10199F00852D30852E31E4F532F533F534F535E507
:1019AF0031453070190535E535AE34700205341404
:1019BF00240CF58274003EF5837430F0804FD3E52C
:1019CF00319400E530648094804042E53595287469
:1019DF0080F86534985036AE30AF317C007D0A12F6
:1019EF0014F9ED2430FF0535E535AC3470020534BC
:1019FF0014240CF58274003CF583EFF0AE30AF3158
:101A0F007C007D0A1214F98E308F3180B18534320B
:101A1F00853533E4F529F52AAF287E00C3E52A9FE3
:101A2F007480F86529985057C3EF9533FFEE9532C0
:101A3F00FEC3E52A9FEE6480F8E529648098501173
:101A4F007400252AF58274003529F5837430F080EF
:101A5F0024C3E528952AFFE49529FE740B2FF58200
:101A6F0074003EF583E0FF7400252AF5827400357B
:101A7F0029F583EFF0052AE52A709D0529809974D1
:101A8F00002528F582E43400F583E4F0F529F52AE2
:101A9F00C3E52A95287480F86529985022E52F25EB
:101AAF002AFD7400252AF58274003529F583E0FBA1
:0F1ABF00AF2112229A052AE52A70D5052980D178
:011ACE0022F5
:1024B800EF25E0F521ED75F008A4F522AD21FF1216
:1024C800281FE4FF1227937FC01227937FC012278B
:1024D800937F301227937F301227937FC012279360
:1024E8007FC0122793E4FF122793E52104FDAF2252
:1024F80012281F7F431227937F4C1227937F701255
:102508002793E4FF122793E4FF1227937F70122783
:10251800937F4C1227937F43122793E4FF0227935C
:10252800EF25E0F521ED75F008A4F522AD21FF12A5
:10253800281F7F381227937F281227937F38122766
:1025480093E4FF1227937FC01227937F30122793BB
:102558007F0C122793E4FF122793E52104FDAF2295
:1025680012281FE4FF1227937F301227937F0C1243
:1025780027937F03122793E4FF1227937F1C1227C8
:0B258800937F141227937F1C022793FF
:0220D3008B215F
:1020D500EF25E0F524ED75F008A4F525AD24FF12F4
:1020E500281FE4F522F523AF21EF3395E0FEEF78C5
:1020F50005C333CE33CED8F9247EF582740F3EF571
:1021050083E5822523F582E583352212278E052373
:10211500E52370020522C39410E522648094804073
:10212500C6E52404FDAF2512281FE4F522F523AFEB
:1021350021EF3395E0FEEF7805C333CE33CED8F9E2
:10214500248EF582740F3EF583E5822523F582E51D
:1021550083352212278E0523E52370020522C394B9
:0921650010E5226480948040C65C
:01216E00224E
:1000B800538E7F5389F0438901C28DD28C758A3063
:0A00C800758CF8D2A9D2AFC2B9229C
:0727BA0001170002180000E6
:0700030053B2FB53B1FB22D5
:0929690020B2037F01227F00224D
:1028E300781AE6FE5F6007EFF45EF67F01227F0051
:0128F30022C2
:10259300D3E5199400E51894004008E5191519705E
:1025A3000215180514E514C39414404EE4F514857C
:1025B30015161229698F15E5177010E5156401705A
:1025C300397518037519E875170122E51764017049
:1025D3001EE515700A781AE64401F6E4F51722E5BC
:1025E3001945187015781AE64402F675170222E5A4
:0A25F30017B40206E5157002F51793
:0125FD0022BB
:0F290400439478539387C286D283D284C28522AC
:1025FE00EFB40800504790260BF8282873022623C4
:10260E0002262502262302262D0226310226390213
:10261E0026410226438004C2858012C2858006C2EE
:10262E00858014D285C284C2838018D285C284D29A
:10263E008380108008D285D284D2838006D285D240
:0A264E0084C2837F057E000228CEBF
:0627C10004083F80000047
:10289E00EF24F960070470097F0680027F07122576
:0828AE00FE7F017E000228CE2E
:0223B2008D217B
:1023B400AD07AC06E41213ABE4FBFA79A078401243
:1023C4001176E4FBFA7980784512127F7BD77AA3E1
:1023D400792878C0121085786C121576E52124F9D5
:1023E400601404702CE4FFFE7D7A7C44786C121532
:1023F4005912117680147BCD7ACC79CC783DC0000B
:10240400786C12153DD00012127F78701215768008
:1024140009787012158200000000787012153DAB27
:102424000BAA0AA909A808121176787012157678F1
:042434007012153DD0
:012438002281
:0A1E9C008E218F228C238D248B25CC
:101EA600E4F52BF52AF529F528F526F527C3E527C8
:101EB6009524E5269523506DAC21AD22E41213AB93
:101EC600E4FBFA79A07840121176E4FBFA7980787F
:101ED6004512127F7BD77AA3792878C01210858F96
:101EE6002F8E2E8D2D8C2CA804A905AA06AB0712C1
:101EF60011767B007A40791C78461211761213E42B
:101F0600E52B2FF52BE52A3EF52AE5293DF529E5B2
:101F1600283CF5287F647E001228F40527E5277003
:101F26008C05268088AF2BAE2AAD29AC28E4121387
:101F3600A6C004C005C006C007AC23AD24E4121336
:101F4600ABA804A905AA06AB07D007D006D005D0D2
:101F56000412127F7B007A40791C784612127F1297
:101F660000128F338E328D318C30E52524F96017BF
:101F7600047031AF33AE32AD31AC30E4FBFA797A6E
:101F860078441211768013AF33AE32AD31AC307B6C
:101F9600CD7ACC79CC783D12127F8F338E328D314B
:101FA6008C308009E4F533F532F531F530AF33AED8
:051FB60032AD31AC303A
:011FBB002203
:1027C7005000304348000044FA0000469C4000484F
:0327D70056D800D1
:0D295C004394075393F8C280C281C28222C7
:1027DB00EF14600F14601114601324037013C28183
:1027EB00C28222D281C28222C281D28222D281D2E1
:0227FB00822238
:0615F0008F218C228D23E7
:1015F600E41213AB7B007AF0797F784512127FE410
:10160600FBFA79A07840121176786C121576E521EE
:1016160025E025E02430F582E43400F583E0FCA3E0
:10162600E0FDA3E0FEA3E0FF78701215767FCD7E85
:10163600CC7D9C7C40786C12155912131C600840B6
:1016460006E4FFFEFDFC227FCD7ECC7DCC7C3D7882
:101656006C12155912131C50097F207EBC7DBE7C6E
:101666004C22E4FFFEFDFC787012155912131C6023
:101676000250030218667FCD7ECC7DCC7C3D786C13
:1016860012155912131C600250030218667FCD7E94
:10169600CC7D9C7C40786C12155912131C400302B9
:1016A6001866E5216003021830C3E5239428E52275
:1016B600940A5037786C121559E4FFFE7DA07C40E1
:1016C600121081C004C005C006C007786C12153D13
:1016D6007870121559121176D003D002D001D000BD
:1016E60012127FE4FBFA799B0217B3C3E523948CAD
:1016F600E522940A5037786C121559E4FFFE7DA056
:101706007C40121081C004C005C006C007786C1268
:10171600153D7870121559121176D003D002D001FA
:10172600D00012127FE4FBFA79A50217B3C3E523B2
:1017360094BDE522940B5036786C121559E4FFFEE1
:101746007DA07C40121081C004C005C006C0077889
:101756006C12153D7870121559121176D003D0020D
:10176600D001D00012127FE4FBFA79B4803FC3E5C2
:101776002394EAE522940B503C786C121559E4FF49
:10178600FE7DA07C40121081C004C005C006C007C3
:10179600786C12153D7870121559121176D003D057
:1017A60002D001D00012127FE4FBFA799678C312B8
:1017B600108502185FC3E523941CE522940C786C0F
:1017C6005039121559E4FFFE7DA07C40121081C0ED
:1017D60004C005C006C007786C12153D7870121556
:1017E60059121176D003D002D001D00012127FE434
:1017F600FBFA79B478C2121085802D121559E4FFD0
:10180600FE7DA07C40121081C004C005C006C00742
:10181600786C12153D7870121559121176D003D0D6
:1018260002D001D00012127F802F786C121559E475
:10183600FFFE7DA07C40121081C004C005C006C01A
:1018460007786C12153D7870121559121176D0036F
:10185600D002D001D00012127F787412157680095A
:0E186600787412158200000000787412153D8F
:011874002251
:1028600043BA8053BADF43BA104396304395309051
:0F287000FE8074C0F0E04402F090FE82E4F0229B
:0F29130090FE82E030E6F990FE82E054BFF022A1
:0929720090FE817401F0022913AA
:0E29400090FE86EFF090FE817402F0022913E3
:09297B0090FE817403F00229139F
:0F29220090FE817404F012291390FE87E0FF22CB
:0E294E0090FE82E4F090FE817405F0022913E1
:0F29310090FE827401F090FE817405F00229136C
:0929840090FE817406F002291393
:10287F00E59254E54420F592E59154DF441AF59121
:0F288F00D29590FEA8743FF075DE2F75BC8022A5
:1027FD00E4F5BDF5BEE5BC54F044404FF5BC00001A
:10280D0000E5BC30E5FB53BCDFAFBDEFFEADBEED6B
:02281D00FF2298
:02274E00AC07D6
:102750001227FDE4FBFAAF041227FDEF2522F52234
:10276000EE3521F5210BBB00010AEB64104A70E63F
:10277000E521C4F854F0C868FEE522C4540F48FFB0
:012780002236
:1026580090FEB2E4F05392FE4391015396FE4395E7
:102668000190FED0F0A37417F090FECEE4F0A3F032
:1026780090FECCF090FEC804F0A304F090FECC7459
:1026880011F0E0F0E04420F090FEC27454F090FEA7
:0C269800C0E04401F090FEC47406F02283
:1028B600E5B2543F4410F5B253B12FE4F5E675E6A0
:0828C60086F5E790FEAEF0225A
:07298D0043948053937F2265
:03299400C28722D5
:03299700D28722C2
:10107E00021450E86480F8E933E83360110460F03C
:10108E00ED33EC337009E8FCE9FDEAFEEBFF2204D8
:10109E0060DED3EB9FEA9EE99DE8C2E78CF0C2F7D3
:1010AE0095F0400CE8CCF8E9CDF9EACEFAEBCFFB9F
:1010BE0012141B85D0F05804700320D5B3E80470C9
:1010CE00075002B2D502145A92D5EC0460F7E4CC64
:1010DE00C0E0C398F8603B94186008400DD0E0FB68
:1010EE00021432E4FBFAC9FC8028E830E406E4C9B5
:1010FE00FBE4CAFCE830E305E4C9CACBFCE85407BC
:10110E006010F8C3E913F9EA13FAEB13FBEC13FCC6
:10111E00D8F130F52FC3E49CFCEF9BFFEE9AFEED69
:10112E0099FDD0E0FBEF4E4D4C701222DB03021402
:10113E0057EC2CFCEF33FFEE33FEED33FDED30E7D5
:10114E00EB021432EF2BFFEE3AFEED39FDD0E0FB51
:10115E0050130BBB000302145AED13FDEE13FEEFFA
:08116E0013FFEC13FC02143224
:10117600EC4D6011E8497017ED33EC3304600DE473
:10118600FCFFFEFD22E933E8330470F80214501226
:10119600141B58046009E4CC248150062850090227
:1011A600145A284003021457C0E0EB4A7044B98031
:1011B60006D0E0FB021446EF4E701CBD8008EBFF24
:1011C600EAFEE9FD80EBE98DF0A4FEE5F002125F90
:1011D600E9CDF9EAFEEBFFEF89F0A4FCE5F0CE8954
:1011E600F0A42EFFE435F0CD89F0A42DFEE435F011
:1011F6008067EF4E7005BD80D780C3EF8BF0A4AC3F
:10120600F0EE8BF0A42CFCE435F0F8EF8AF0A42C79
:10121600E5F038FCE433CB8DF0A42CFCE5F03BF88C
:10122600EE8AF0A42CFCE5F038F8E433CF89F0A47C
:101236002CFCE5F038CF3400CE89F0A42FFFE5F082
:101246003EFEE433C98DF0A42EFEE5F039CD8AF0DA
:10125600A42FFFE5F03EFEE43DFD33D0E0FB500752
:101266000BBB000F02145AEC2CFCEF33FFEE33FEDF
:06127600ED33FD0214320D
:10127C0002145AEC5D046005E85904700302145022
:10128C0012141B580460F6EC4860F2EC7004FDFE7E
:10129C00FF22C860DB2481C85009C3986002500645
:1012AC000214579850CAF582E9294B4A7005AB8253
:1012BC0002144675F0007C1A7880C3EF9BEE9AED11
:1012CC0099400DC3EF9BFFEE9AFEED99FDE842F0BD
:1012DC00DC23ACF0D0E0FFD0E0FED0E0FDAB822010
:1012EC00E7101BEB60BAEC2CFCEF33FFEE33FEED9A
:1012FC0033FD021432E803F830E705C0F075F00056
:10130C00EF2FFFEE33FEED33FD40B830E7C280AA7D
:10131C0074F8CC6480CCC86480C8F58204604FC378
:10132C00EB9FF5F0EA9E42F0E99D42F0E89C45F017
:10133C00603C501DE5825FFFE582D313CB5BCBF4A1
:10134C002B5582FB50280ABA002409B900200880CA
:10135C001DE5825BFBE582D313CF5FCFF4C3132F64
:10136C005582FF50090EBE00050DBD00010CC3EBEC
:10137C009FF5F0EA9E42F0E99D42F0E89C45F06052
:09138C0007CC4820E701B3EC2274
:10139500ED33EC33600A047003BD8004ECB2E7FC66
:0113A5002225
:1013A60075F020800E75F010800575F0087D007EC2
:1013B600007F003392D530D50312152FEC33401041
:1013C600EF33FFEE33FEED33FDEC33FCD5F0ED22CB
:0E13D600E5F0247EA2D513CC92E7CDCEFF2207
:1013E400EDD2E7CD33EC3392D524814006E4FFFE01
:1013F400FDFC22FCE4CFCECDCC24E0501174FF8060
:10140400EDC3CC13CCCD13CDCE13CECF13CF0470FC
:07141400F030D5DE02152FB8
:10000E0002145022EDA2E7D2E7F9EC3340F260F38E
:10001E00B4FF08ED547F70E802145AF82481C2E050
:10002E00C0E0F40428FAC313FCED92E7FD8C348D86
:10003E00358E368F37EEA2E7E9BA7F02C31334004E
:10004E009400FA75F091A4E5F013F494FE8AF0A4EE
:10005E0033E5F033248CD313FDE492E7FE7F007C6E
:10006E003F758302ECC0E0F8EDC0E0F9EEC0E0FAB7
:10007E00EFC0E0FBAC34AD35AE36AF3712127FD0E9
:10008E00E0FBD0E0FAD0E0F9D0E0F8121085ED6494
:10009E0080FD30E7011CD583CBED33CC33F8D0E0B7
:0A00AE00A2E71328C313CC13FD22B0
:101FBC008F398E388D378C36E4FFFE7D807C3FABBD
:101FCC0039AA38A937A83612131C7009AF39AE38A4
:101FDC00AD37AC3622AF39AE38AD37AC36121465EE
:101FEC00FBAF3DAE3CAD3BAC3A121465FFBF0108F4
:101FFC00E4FFFE7D807C3F22EF64046022EB6404EE
:10200C00601DBB0127E4FFFEFDFCAB3DAA3CA93BD8
:10201C00A83A12131C60084006E4FFFEFDFC227473
:10202C00FFF53DF53CF53BF53A0220CAE4F53EF5EB
:10203C003FFFFEFDFCAB39AA38A937A83612131C9A
:10204C00504BAF3DAE3CAD3BAC3A1213E48E3E8FE1
:10205C003FAC3EAD3FEC1213ABC8ECC8C9EDC9CADE
:10206C00EECACBEFCBAF3DAE3CAD3BAC3A121081E0
:10207C00E4FBFAF9F812131C70A5AF39AE38AD3782
:10208C00AC361213958F398E388D378C36AF39AEFE
:10209C0038AD37AC36121D9BAB3DAA3CA93BA83AD8
:1020AC001211761221A78F3D8E3C8D3B8C3AE53F69
:1020BC0030E00B1213958F3D8E3C8D3B8C3AAF3D2F
:0720CC00AE3CAD3BAC3A2233
:10141B00E9D2E7C933E833F892D5EDD2E7CD33EC17
:07142B0033FC5002B2D52290
:10143200EC30E7100FBF000C0EBE00080DBD00041B
:101442000BEB6014A2D5EB13FCED92E7FD2274FFC7
:10145200FCFDFEFF22E480F8A2D574FF13FC7D8020
:03146200E480EF34
:10146500ED33EC33601004700FED547F700574029A
:0A14750092E0227404220422E42213
:10216F0033DA929E35B16011377FE5FE39218489CC
:10217F003AAEC3FF3C1D955B3D6358473E75FDF07E
:10218F003F3172183F800000C2D502145A0214501A
:10219F00BD80FA50F3021457ED33EC330460F17B3A
:1021AF003B7AAA79B8783F121176ED33EC3392D59A
:1021BF00247B5011A2D570DB500BED4480240450CA
:1021CF0004A2D580CEEFFBEEFAEDF9ECF81213E492
:1021DF00EFF582F404FC1213B0121085C082902127
:1021EF006F740912148EED33CC33D0F092D525F0E5
:0A21FF00A2D57001C313CC13FD221A
:101D67003E9248DA3ECCCCCD3F2AAAAB40000000D9
:101D77003F8000003F9837F03FB504F33FD744FC5E
:101D87003E3172173EB172173F0515913EDE5BD9A2
:101D9700D2008002C200EDD2E7F8CD33EC330470F5
:101DA7000BBD800592D502145A02145040FBD31480
:101DB70060F2F5F07C3FEE7A00C39496C8948B40AE
:101DC700230AC89469C8941A401A0AC89468C89420
:101DD7001F40110AC8945AC89425400805F07A0094
:101DE700CDC2E7CDC0F08C408D418E428F43EA23B0
:101DF70023C0E02477F582E4341DF58312156612BB
:101E07001085ECC0E0EDC0E0EEC0E0EFC0E01215D9
:101E170049A840A941AA42AB43121081D0E0FBD0A8
:101E2700E0FAD0E0F9D0E0B2E7F812127F8C408DEB
:101E3700418E428F43901D67740312147FA840A9F7
:101E470041AA42AB43121176D0E0600F2483F5829A
:101E5700E4341DF5831215661210858C408D418E72
:101E6700428F43D0E0C3947FFDE49400FC1213AB90
:101E77007B187A727931783F121176A840A941AA66
:101E870042AB4312108530000B7BD97A5B79DE7841
:051E97003E121176224D
:10147F00C0E0EFFBEEFAEDF9ECF8121176D0E0F5E3
:10148F00F0EFFBEEFAEDF9ECF8121549A3A3A3A3C5
:10149F00E8C0E0E9C0E0EAC0E0EBC0E0C0F0121144
:1014AF0076121566A3A3A3A3121085D0F0D0E0FB8C
:0D14BF00D0E0FAD0E0F9D0E0F8D5F0D4226A
:03000000022326B2
:0C232600787FE4F6D8FD75817702236D06
:1014CC00BB010CE58229F582E5833AF583E02250D5
:1014DC0006E92582F8E622BBFE06E92582F8E2221F
:0D14EC00E58229F582E5833AF583E4932239
:1014F900C2D5EC30E709B2D5E4C39DFDE49CFCEE0E
:1015090030E715B2D5E4C39FFFE49EFE12159BC3D5
:10151900E49DFDE49CFC800312159B30D507C3E4D0
:061529009FFFE49EFE227C
:0E152F00C3E49FFFE49EFEE49DFDE49CFC22CD
:0C153D00E6FC08E6FD08E6FE08E6FF22DA
:10154900E493FC740193FD740293FE740393FF22E8
:0D155900E6FB08E6F908E6FA08E6CBF82202
:10156600E493F8740193F9740293FA740393FB22DB
:0C157600ECF608EDF608EEF608EFF622A1
:10158200D083D082E493F608740193F60874029330
:09159200F608740393F674047367
:102332000200D6E493A3F8E493A34003F68001F2EB
:1023420008DFF48029E493A3F85407240CC8C333AC
:10235200C4540F4420C8834004F456800146F6DF7B
:10236200E4800B01020408102040809027B3E47E31
:10237200019360BCA3FF543F30E509541FFEE49370
:10238200A360010ECF54C025E060A840B8E493A337
:10239200FAE493A3F8E493A3C8C582C8CAC583CA62
:1023A200F0A3C8C582C8CAC583CADFE9DEE780BE1A
:0127DA0000FE
:10159B00BC000BBE0029EF8DF084FFADF022E4CC34
:1015AB00F875F008EF2FFFEE33FEEC33FCEE9DECFD
:1015BB00984005FCEE9DFE0FD5F0E9E4CEFD22ED43
:1015CB00F8F5F0EE8420D21CFEADF075F008EF2F8D
:1015DB00FFED33FD4007985006D5F0F222C398FD7E
:0515EB000FD5F0EA221B
:00000001FF
